:020000040800F2
:10000000E0480020F9020008AF1E0008B71A0008F7
:10001000AD1E000853050008F92700080000000085
:10002000000000000000000000000000390200088D
:10003000550500080000000095020008B1210008E5
:100040001303000813030008130300081303000838
:100050001303000813030008130300081303000828
:100060001303000813030008130300081303000818
:100070001303000813030008130300081303000808
:100080001303000813030008130300080000000016
:100090000000000000000000000000001303000842
:1000A00013030008130300081303000813030008D8
:1000B00013030008130300087D220008130300083F
:1000C00013030008130300081303000813030008B8
:1000D000130300089D270008D52700080000000032
:1000E00013030008130300081303000800000000B6
:1000F00000000000000000000000000013030008E2
:100100000000000013030008C922000813030008C0
:1001100000000000000000000000000000000000DF
:100120001303000813030008130300081303000857
:1001300013030008000000000000000000000000A1
:100140000000000000000000000000001303000891
:100150001303000813030008130300081303000827
:100160001303000813030008000000000000000053
:10017000000000000000000000000000000000007F
:100180000000000013030008000000000000000051
:10019000130300081303000800F002F800F03CF815
:1001A0000AA090E8000C82448344AAF10107DA45D2
:1001B00001D100F031F8AFF2090EBAE80F0013F0E8
:1001C000010F18BFFB1A43F001031847A03C0000C1
:1001D000C03C0000103A24BF78C878C1FAD8520752
:1001E00024BF30C830C144BF04680C6070470000B1
:1001F0000023002400250026103A28BF78C1FBD830
:10020000520728BF30C148BF0B6070471FB503F0CD
:1002100002FE1FBD10B510BD00F061F91146FFF7D9
:10022000F5FF02F005FB00F07FF903B4FFF7F2FFE2
:1002300003BC00F087F900002C4B19680868B0E88F
:10024000F04F80F30988BFF36F8F4FF0000080F309
:10025000118870470000000008480068006880F3BB
:1002600008884FF0000080F3148862B661B6BFF3CF
:100270004F8FBFF36F8F00DF00BF00BF08ED00E0BE
:10028000DFF80C00016841F470010160704700BFA5
:1002900088ED00E0EFF30980BFF36F8F134B1A680E
:1002A0001EF0100F08BF20ED108A20E9F04F1060FB
:1002B00009B44FF0500080F31188BFF34F8FBFF3A4
:1002C0006F8F02F093FE4FF0000080F3118809BC9D
:1002D00019680868B0E8F04F1EF0100F08BFB0ECC6
:1002E000108A80F30988BFF36F8F7047C000002029
:1002F000EFF3058070470000094880470948004730
:10030000FEE7FEE7FEE7FEE7FEE7FEE7FEE7FEE7C5
:10031000FEE7FEE704480549054A064B7047000022
:100320006D22000899010008E0420020E04800200A
:10033000E0440020E044002053EA020C00F0698011
:100340002DE9F04B4FF00006002B1FBFB3FA83F5E9
:1003500003FA05F424FA05F65E4012BF1643B2FA1A
:1003600082F502FA05F4C5F120051EBF22FA05FC4C
:1003700044EA0C04203556EA044C4FEA144418BFF2
:10038000641C4FF000084FF00009904271EB030C21
:1003900039D3002919BFB1FA81F701FA07F6B0FA8B
:1003A00080F700FA07F6C7F120071EBF20FA07FC06
:1003B00046EA0C062037B6FBF4FCA7EB0507103F16
:1003C00007F01F0BCBF120060CFA0BFB2CFA06F6FC
:1003D00044BFB3460026202FA4BF5E464FF0000B5B
:1003E0005BEA060C08BF4FF0010B19EB0B09ABFBE6
:1003F000027C48EB0608C01B06FB02CC0BFB03CCBF
:1004000071EB0C01C1E70B46024641464846BDE888
:10041000F08B13B54FF000004FF00001AFF30080F8
:10042000BDE81C40704710B5203AC0F00B80B1E821
:100430001850203AA0E81850B1E81850A0E8185019
:10044000BFF4F5AF5FEA027C24BFB1E81850A0E822
:10045000185044BF18C918C0BDE810405FEA827C3C
:1004600024BF51F8043B40F8043B08BF7047D20753
:1004700028BF31F8023B48BF11F8012B28BF20F8F4
:10048000023B48BF00F8012B70474FF0000200B557
:10049000134694469646203922BFA0E80C50A0E8A7
:1004A0000C50B1F12001BFF4F7AF090728BFA0E855
:1004B0000C5048BF0CC05DF804EB890028BF40F821
:1004C000042B08BF704748BF20F8022B11F0804F63
:1004D00018BF00F8012B704770477047704775468A
:1004E00000F02CF8AE4605006946534620F00700A0
:1004F000854618B020B5FFF70DFFBDE820404FF04E
:1005000000064FF000074FF000084FF0000B21F0FD
:100510000701AC46ACE8C009ACE8C009ACE8C009CA
:10052000ACE8C0098D46704710B50446AFF30080B3
:100530002046BDE81040FFF778BE00000048704735
:100540008042002001491820ABBEFEE726000200D1
:100550007047FEE7704772B6FEE72DE9F0410446AA
:10056000876D00F04BF9064694F835000025022807
:1005700006D08020606584F834500120BDE8F08109
:100580002068016821F0160101602068416921F0AE
:1005900080014161206C08B9A06C20B1206801681D
:1005A00021F0080101602068016821F0010101606B
:1005B0000CE000F023F9801B052807D92020606596
:1005C000032084F8350084F83450D7E720680068A9
:1005D000C007EED194F85C103F208840B86001203D
:1005E00084F8350084F834500020C7E790F83510BF
:1005F000022903D08021416501207047052180F840
:1006000035100068016821F0010101600020704789
:100610002DE9F84FDFF8B8A10022012403254FF09F
:100620000F090AF1040BAAF1040E00BF0B6804FACB
:1006300002F63340B34273D10F7907F00307012F5D
:1006400001D0022F16D187684FEA420805FA08FC4C
:1006500027EA0C07D1F80CC00CFA08FC4CEA070C8E
:10066000C0F808C04768B7430E79C6F30016964035
:100670003E4346600E79F643B6070DD0C768560074
:1006800005FA06FC27EA0C07D1F808C00CFA06FCAC
:100690004CEA070CC0F80CC00E7906F00306022ED7
:1006A00010D1D60800EB8608D8F8206057074FEA2B
:1006B000D76C09FA0CF7BE430F6907FA0CF73743FA
:1006C000C8F8207006684FEA420C05FA0CF7BE43E2
:1006D0000F7907F0030707FA0CF7374307604E68F6
:1006E00016F4403F6DD03B4E376847F48047376083
:1006F000366822F0030706F480460096364E07EB74
:10070000060CDCF8086897073F0F09FA07F826EA95
:100710000806DFF8C880404503D14FF000081EE00E
:100720004FE0DFF8BC80404502D14FF0010816E0F1
:10073000DFF8B080404502D14FF002080FE0DFF84B
:10074000A880404502D14FF0030808E0DFF89C8004
:10075000404502D14FF0040801E04FF0070808FAC5
:1007600007F848EA0608CCF80888DAF80060574627
:10077000D1F804C09E435FEACC2C00D51E433E60F6
:10078000DBF800605F46D1F804C09E435FEA8C2C22
:1007900000D51E433E60DEF800607746D1F804C005
:1007A0009E435FEA8C3C00D51E433E60084F083FE5
:1007B0003E68D1F804C09E435FEACC3C00D51E439E
:1007C0003E60521C102AFFF431AFBDE8F88F0000E4
:1007D000083C014044380240003001400000024023
:1007E0000004024000080240000C024000100240D9
:1007F0000AB1816170470904FBE700000148806885
:1008000070470000B000002002488168027811445F
:1008100081607047B00000200B4810B5016841F4BA
:1008200000710160016841F480610160016841F478
:1008300080710160032000F09FF80F2000F006F89F
:1008400000F050F8002010BD003C024030B50546D5
:100850001F4887B00024016841F00801016000686A
:1008600006A900F00800009001A800F031F90498F2
:10087000A8B100F04DF940001649174AB0FBF1F15C
:100880001648491E026040F2E732C0E90324C0E97D
:100890000114846100F082FB040003D015E000F035
:1008A00037F9E9E70D4800F0F7FB04000DD13220DD
:1008B00000F034F8102D07D200222946322000F033
:1008C0003BF80748056000E0012407B0204630BD32
:1008D0004038024040420F00000C00404805002014
:1008E000B40000200C4882B0016841F480410160EE
:1008F000006800F4804000900748001F016841F044
:10090000805101600068002200F0805000900F21AB
:10091000901E02B000F010B844380240002809DBF5
:1009200000F01F02012191404009800000F1E02009
:10093000C0F8001170470000F0B40E4B1B680C4665
:10094000C3F30223C3F10705042D00D90425191DA3
:10095000072901D2002300E0DB1E012606FA05F17B
:10096000491E214099409E40761E16403143F0BCFE
:1009700001F043BF0CED00E0064900F007020868F3
:100980004FF6FF03184040EA0220034A1043086074
:10099000704700000CED00E00000FA052DE9F0477B
:1009A0000E46050065D0DFF81481D8F80000F7B2D4
:1009B00000F00700B04207D288F80070D8F80000B5
:1009C00000F00700B04254D128683D4C810712D591
:1009D000400703D5206840F4E050206028780007E5
:1009E00003D5206840F4604020602068A96820F0AA
:1009F000F000084320602878C0072DD0304968688F
:100A00000839012812D0022813D0032811D0096810
:100A1000890700292DDA216821F0030101432160B3
:100A2000FFF7ECFE814641F2883A0EE0096889033F
:100A3000EFE709688901ECE7FFF7E0FEA0EB0901A9
:100A4000514502D90320BDE8F0872068696800F0AD
:100A50000C00B0EB810FEFD1D8F80010404601F048
:100A60000701B14207D90770006800F00700B042E3
:100A700001D00120E7E72878400705D52068E9681C
:100A800020F4E050084320602878000706D520684D
:100A9000296920F4604040EAC100206000F058F865
:100AA0002168084AC1F30311515CC8400649086037
:100AB00006480068FFF7CAFE0020C4E7003C024079
:100AC00008380240483E0008BC000020B400002066
:100AD0000F2202600C4A136803F00303436013689B
:100AE00003F0F0038360136803F4E053C3601268FB
:100AF0004FF4E05303EAD20202610448006800F0B8
:100B0000070008607047000008380240003C0240BF
:100B10000448054900680968044AC1F38221515C10
:100B2000C8407047BC00002008380240583E00080A
:100B30000448054900680968044AC1F34231515C20
:100B4000C8407047BC00002008380240583E0008EA
:100B5000154810B5006810F00C02144813D041106D
:100B6000042A0FD0082A0ED10F4C241F22682368B4
:100B700002F03F025B0207D52068C0F38810A0FB9B
:100B8000010106E0084610BD2168C1F38811A1FBF0
:100B900000010023FFF7D0FB2168C1F30141491C8C
:100BA0004900B0FBF1F010BD083802400024F40009
:100BB0002DE9F84F04006ED02078DFF84C93C00781
:100BC000A9F104054AD009F104000168C1F38101CB
:100BD000012908D00068C0F3810002280AD1D9F8A1
:100BE0000000400206D52868800337D560680028D9
:100BF000E1D033E06068B0F5803F10D0B0F5A02FB1
:100C0000286810D020F480302860286820F48020E4
:100C100028606068A8B1FFF7F1FD06460DE028687E
:100C200040F48030F4E740F480202860F7E700BF0C
:100C3000FFF7E4FD801B642873D828688003F7D58C
:100C40000CE0FFF7DBFD064605E000BFFFF7D6FD31
:100C5000801B6428F0D828688003F7D42078DFF858
:100C6000AC8280074FF0000A3ED5A748001D0168FE
:100C700011F00C0F08D00068C0F3810002280BD1DE
:100C8000D9F80000400207D42868800716D5E0682C
:100C9000012800D112E033E1E068B8B10120C8F8C2
:100CA0000000FFF7ABFD064605E000BFFFF7A6FD1D
:100CB000801B0228C0D828688007F7D528682169DA
:100CC00020F0F80040EAC10028600DE0C8F800A05C
:100CD000FFF794FD064604E0FFF790FD801B022815
:100CE0001FD828688007F7D42078000722D5864FC0
:100CF00087486169703771B101210160FFF77EFD9E
:100D0000064604E0FFF77AFD801B022809D8386800
:100D10008007F7D50EE0C0F800A0FFF76FFD06468C
:100D200005E082E0FFF76AFD801B02287DD8386865
:100D30008007F7D42078400768D5DFF8CCB10027CA
:100D40000BF13C0BDBF80000C0000BD4DBF800100B
:100D500041F08051CBF80010DBF80000012700F0D3
:100D6000805000906B4E3068C00510D4306840F45D
:100D700080703060FFF742FD009005E0FFF73EFD18
:100D80000099401A022850D83068C005F6D55E4E4A
:100D9000A0686C3601280FD00528306810D020F0EC
:100DA00001003060306820F004003060A068B8B105
:100DB000FFF724FD00900FE0306840F00100F4E7F9
:100DC00040F004003060F7E7FFF718FD0099411A82
:100DD00041F28830814266D830688007F4D50EE051
:100DE000FFF70CFD009007E0FFF708FD0099411A9E
:100DF00041F28830814256D830688007F4D42FB150
:100E0000DBF8001021F08051CBF80010A069C8B3C6
:100E10003D49091D0968C1F3810102294AD0022810
:100E2000504607D0C8F8600000E03CE0FFF7E6FC61
:100E300004463BE04746C8F86000FFF7DFFC064683
:100E400005E000BFFFF7DAFC801B02282BD82868DA
:100E50008001F7D4D4E907010843A16A2E4A490862
:100E600002EB0141626A41EA8211084394F82C10B6
:100E700040EA0161C9F8001001203866FFF7BEFCA6
:100E8000044606E03EE000BFFFF7B8FC001B022866
:100E900009D828688001F7D534E000BFFFF7AEFC21
:100EA000001B022802D90320BDE8F88F28688001C2
:100EB000F4D427E00128F7D0D9F80000E26900F463
:100EC000800191421CD1226A00F03F01914217D16A
:100ED00047F6C071626A0140B1EB821F10D1A26A6D
:100EE0004FF0FF3300F4403103EB5202B1EB024FFD
:100EF00006D194F82C1000F07060B0EB016F01D0B7
:100F00000120D1E70020CFE704380240000047422B
:100F1000800E4742007000400000FFFF704770479E
:100F200070B590F83C20012A2CD0012480F83C4078
:100F3000022280F83D2003685A689D6822F07006FE
:100F40000A6832435A60104B02689A420ED0B2F1DE
:100F5000804F0BD00D4B9A4208D00D4B9A4205D0D2
:100F60000C4B9A4202D00C4B9A4204D1496825F0AE
:100F700080031943916080F83D40002180F83C10C7
:100F8000084670BD022070BD000001400004004012
:100F900000080040000C00400040014010B5040073
:100FA00003D094F83D0010B107E0012010BD0020EF
:100FB00084F83C00204600F01FF8022084F83D0031
:100FC000211D206801F086F9012084F8460084F88C
:100FD0003E0084F83F0084F8400084F8410084F823
:100FE000420084F8430084F8440084F8450084F803
:100FF0003D00002010BD000008B500680B49884284
:1010000012D10B48016841F0040101600068002220
:1010100000F00400009005211E20FFF78DFCBDE8C4
:1010200008401E20FFF77ABC08BD00000008004001
:101030004038024090F83D10012901D0012070474E
:10104000022180F83D1000680E4988420ED0B0F1B0
:10105000804F0BD00C49884208D00C49884205D0FB
:101060000B49884202D00B49884204D1816801F0C3
:101070000701062903D0016841F001010160002049
:1010800070470000000001400004004000080040DC
:10109000000C00400040014090F83D10012901D0B3
:1010A00001207047022180F83D100168CA6842F0B3
:1010B0000102CA6000680E4988420ED0B0F1804F2C
:1010C0000BD00C49884208D00B49884205D00B4907
:1010D000884202D00A49884204D1816801F00701A0
:1010E000062903D0016841F001010160002070472A
:1010F000000001400004004000080040000C0040D7
:101100000040014070B5044690F83C0000250128DD
:1011100017D0012684F83C60022084F83D00206846
:10112000826822F0770222F47F42826008685028A9
:1011300038D00DDC20284FD005DC90B3102811D119
:101140004AE0022070BD302846D040280AD13BE05A
:1011500060282FD070280DD0B0F5805F03D0B0F597
:10116000005F12D0012584F83D60002084F83C0027
:10117000284670BDCB68D1E90121206801F003F950
:101180002068816841F0770109E0CB68D1E901214D
:10119000206801F0F8F82068816841F4804181609E
:1011A000E1E719E0CA684968206801F0A1F9502117
:1011B000206806E0CA684968206801F0AAF9602141
:1011C000206801F0EAF8CEE7CA684968206801F0B3
:1011D0008FF940212068F4E7226801461046F0E7C5
:1011E0002DE9F0410D46040003D094F83D0018B1FC
:1011F00008E00120BDE8F081002084F83C00204692
:1012000000F040F8022084F83D002068816844F234
:10121000070291438160211D206801F05BF822687C
:1012200090689169166A2B68AF69034340F20330F6
:10123000814341EA0721A868EF6908434FF6FC4162
:101240008843E96840EA0720014328692F6A0001C2
:1012500040EA0730084369686D6926F0AA0646EA45
:101260000515294393602268906154F8460B01628A
:10127000012004F81F09E0752076E0762077A0753C
:101280000020B7E770B586B0044614216846FFF722
:10129000FCF81F4E236800221E49022401251E4827
:1012A000B34214D11B4B14331E6846F001061E6076
:1012B0001B6803F0010305930B6843F001030B6007
:1012C000096801F0010105914FF4407115E0B3F197
:1012D000804F1AD10F4B10331E6846F001061E6076
:1012E0001B6803F0010305930B6843F001030B60D7
:1012F000096801F00101059103210091CDE9014246
:10130000CDE903256946FFF783F906B070BD0000FB
:10131000000001403038024000000240704770B5C4
:101320000446006801694FF00005C943890715D4D8
:10133000C168C943890711D4E91E016101202077E2
:10134000206880698007204602D0FFF7E7FF04E0AD
:1013500000F0C0F8204600F065F9257720680169A3
:10136000C943490717D4C168C943490713D46FF06B
:1013700004010161022020772068806910F4407F19
:10138000204602D0FFF7CAFF04E000F0A3F8204691
:1013900000F048F9257720680169C943090716D488
:1013A000C168C943090712D46FF008010161042024
:1013B00020772068C0698007204602D0FFF7AEFF83
:1013C00004E000F087F8204600F02CF9257720682B
:1013D0000169C943C90617D4C168C943C90613D4F2
:1013E0006FF010010161082020772068C06910F4B7
:1013F000407F204602D0FFF791FF04E000F06AF83A
:10140000204600F00FF9257720680169C943C90714
:1014100008D1C168C943C90704D1891E01612046AA
:1014200000F05AF920680169C943090609D4C16866
:10143000C943090605D46FF0800101612046FFF71A
:101440006DFD20680169C943490609D4C168C943D3
:10145000490605D46FF040010161204600F046F9CD
:1014600020680169C94389060BD4C168C94389064C
:1014700007D46FF0200101612046BDE87040FFF7FE
:101480004EBD70BD10B586B0044614216846FEF707
:10149000FCFF0D492068884214D10C4800210268E5
:1014A00042F001020260006800F001000590C020D7
:1014B00000900220CDE90101CDE9031069460448FE
:1014C000FFF7A6F806B010BD000400403038024017
:1014D00000000240704770B5044690F83C000026BA
:1014E0000D4601280FD0012084F83C006AB1042A7F
:1014F0001DD0082A2FD00C2A3FD00126002084F8C6
:101500003C00304670BD022070BD206800F04EFFE8
:101510002068816941F0080181612068816921F0BA
:1015200004018161206881692A69114311E0206802
:1015300000F064FF2068816941F4006181612068E6
:10154000816921F480618161206881692A6941EAA9
:1015500002218161D2E7206800F07CFF2068C16928
:1015600041F00801C1612068C16921F00401C16135
:101570002068C1692A69114311E0206800F096FFD4
:101580002068C16941F40061C1612068C16921F42A
:101590008061C1612068C1692A6941EA0221C16193
:1015A000ACE710B5040003D094F83D0010B107E09B
:1015B000012010BD002084F83C00204600F01EF8F9
:1015C000022084F83D00211D206800F083FE0120E8
:1015D00084F8460084F83E0084F83F0084F8400018
:1015E00084F8410084F8420084F8430084F8440001
:1015F00084F8450084F83D00002010BD08B500685F
:101600000649884208D10648016841F0020101609C
:10161000006800F00200009008BD000000040040D7
:10162000403802407047000010B50446022249B11C
:1016300004290ED0082913D094F84100012816D0AF
:10164000012010BD94F83E000128F9D184F83E2015
:101650000FE094F83F000128F2D184F83F2008E021
:1016600094F840000128EBD184F8402001E084F890
:1016700041200122206800F079FE1249206888424A
:1016800003D1426C42F400424264206888420ED08A
:10169000B0F1804F0BD00C49884208D00B498842EA
:1016A00005D00B49884202D00A49884204D181689A
:1016B00001F00701062903D0016841F00101016032
:1016C000002010BD00000140000400400008004060
:1016D000000C00400040014000680349884201D1ED
:1016E000FFF792B870470000000C00407047704749
:1016F00070470000F8B5016804460868CA684B697D
:1017000010F00F0F4FF0000559D003F0010602F45E
:101710009077374365D0C10705D0D10503D5216C3B
:1017200041F001012164410705D5D90703D0216C9F
:1017300041F002012164810705D5D90703D0216C4E
:1017400041F004012164010707D502F02001314373
:1017500003D0216C41F008012164216C00293AD0AA
:10176000800604D5900602D5204600F013FF2068BD
:101770004069216CC0F38010090700D460B3204693
:1017800000F0E1FE20684069400621D52068143051
:1017900050E8001F21F0400140E80012002AF5D176
:1017A000A06BA8B16C490165A06BFEF71FFF002874
:1017B00011D0A06B016D01B0BDE8F0400847830671
:1017C0000FD593060DD52046BDE8F84000F0E2BEE7
:1017D0002046FFF78DFFF8BD2046FFF789FF2564FF
:1017E000F8BD266B2023012E79D1C60677D5D60603
:1017F00075D50868486800904869400640D5A16BD7
:10180000086840680004000CEAD0A28D8242E7D943
:10181000E085C869B0F5807F2DD020680C3050E895
:10182000001F21F4807140E80012002AF5D12068E1
:10183000143050E8001F21F0010140E80012002A96
:10184000F5D12068143050E8001F21F0400140E835
:101850000012002AF5D184F83E30256320680C3050
:1018600050E8001F21F0100140E80012002AF5D1D5
:10187000A06BFEF772FEA08DE18D401A81B229E0C7
:10188000A08DE18D401A81B2E08D0028A8D00029FA
:10189000A6D020680C3050E8002F22F4907240E867
:1018A0000026002EF5D12068143050E8002F22F0D9
:1018B000010240E80026002EF5D184F83E30256371
:1018C00020680C3050E8002F22F0100240E800237E
:1018D000002BF5D12046FFF70AFFF8BDFFE705060C
:1018E0002BD5150629D594F83D002128F5D1A068FF
:1018F000B0F5805F01D12069B0B1206A411C21623E
:10190000216800784860E08C401E0004000CE084F0
:10191000E3D12068C16821F08001C1602068C168FE
:1019200041F04001C160D8E7206A0088C0F3080098
:101930004860206A801C2062E5E74006CDD550064D
:10194000CBD5CA68204622F04002CA6084F83D30F8
:1019500000F0B0F8C1E700003725000870B50400BA
:1019600004D094F83D00002510B106E0012070BDC0
:1019700084F83C50204600F023F8242084F83D00F1
:101980002068C16821F40051C160204600F062FE69
:101990002068016921F4904101612068416921F0CA
:1019A0002A0141612068C16841F40051C160256489
:1019B000202084F83D0084F83E00002070BD000027
:1019C000F0B587B0044614216846FEF75EFD2A4F45
:1019D0002368002229490224032507262848BB4200
:1019E00022D1264B14331F6847F010071F601B6875
:1019F00003F0100305930B6843F001030B600968C3
:101A000002AB01F0010105914FF40441CDE900144E
:101A100083E864006946FEF7FBFD002205212520CE
:101A2000FEF78AFF252023E0164FBB4222D1134B3D
:101A300010331F6847F400371F601B6803F400333E
:101A400005930B6843F001030B60096802AB01F0DA
:101A5000010105910C21CDE9001483E86400694679
:101A6000FEF7D6FD002205212620FEF765FF262081
:101A7000FEF754FF07B0F0BD0010014030380240BF
:101A8000000002400044004090F83E30202B0ED170
:101A900059B152B190F83C30012B08D0012380F8A5
:101AA0003C300023036300F05BBE0120704702203E
:101AB000704770477047FEE770B52E492DED048BD7
:101AC0000268CA6042680A6102898A82827A8A75DB
:101AD000017855294AD14078532847D1254C0C34F8
:101AE000B4F9020001F0B5FE9FED238B53EC182BE7
:101AF00001F002FF9FED229B53EC192B01F0FCFE3D
:101B000001F03CFC1B4D2860B4F9040001F0A1FE7B
:101B100053EC182B01F0F0FE53EC192B01F0ECFE06
:101B200001F02CFC6860B4F9060001F092FE53EC61
:101B3000182B01F0E1FE53EC192B01F0DDFE01F052
:101B40001DFCA860B4F9080001F083FE9FED0E1B98
:101B500053EC112B01F0F8FC9FED0D1B53EC112BF6
:101B600001F03EFC01F00AFC0B490860BDEC048B5F
:101B700070BD000028010020000000000000003FB0
:101B8000000000000080664000000000004075403A
:101B900000000000002042400000002000B587B097
:101BA0001C2206496846FEF73EFC0021684600F00C
:101BB0009DFE0349886007B000BD00002C3E000870
:101BC000080000202DE9F04186B014216846FEF798
:101BD0005CFC27480024016841F0040101600168B1
:101BE00001F004010591016841F080010160016884
:101BF00001F080010591016841F001010160016877
:101C000001F001010591016841F0020101600068E5
:101C1000184F00F0020040F20465059000222946AA
:101C20003846FEF7E5FDDFF850804FF4407600229D
:101C300031464046FEF7DCFD3020CDE90004694620
:101C40000E480294FEF7E4FC00950125CDE901540D
:101C5000694638460394FEF7DBFC0096CDE9015453
:101C6000694640460394FEF7D3FC06B0BDE8F08118
:101C700030380240000402400008024000000240E8
:101C800010B58CB024216846FEF7FFFB00241648EF
:101C9000099414490A94C0E900144FF6FF71C0E991
:101CA00002410461446184610320CDE90004012004
:101CB000CDE902040494CDE90540079469460A4839
:101CC0000894FFF78DFA08B1FEF745FC099409A9BD
:101CD00005480A94FFF724F9002801D0FEF73BFCE1
:101CE0000CB010BD00000140A003002010B58CB066
:101CF00024216846FEF7C9FB0024154809944FF0DB
:101D000080410A94C0E900144FF6FF71C0E9024116
:101D1000046184610320CDE900040120CDE90204BF
:101D20000494CDE905400794694609480894FFF7F3
:101D300057FA08B1FEF70FFC099409A904480A9460
:101D4000FFF7EEF8002801D0FEF705FC0CB010BD3F
:101D5000E803002010B58AB0002407941C216846CF
:101D60000894FEF792FB1A48184901604721C0E920
:101D70000114C721C0E903148461FFF712FC08B104
:101D8000FEF7E9FB079407A911480894FFF7C8F884
:101D900008B1FEF7E0FB6020CDE9000402940022C8
:101DA00069460B480494FFF796FB08B1FEF7D3FB96
:101DB000042269460648FFF78EFB08B1FEF7CBFB0D
:101DC0000348FFF75FFB0AB010BD000000040040AD
:101DD0003004002010B586B0002417480094019408
:101DE00002940394049413490594016042F20F7124
:101DF000C0E901143121C0E903148461FFF7CEF872
:101E000008B1FEF7A8FB4FF48050009069460A48DD
:101E1000FFF778F908B1FEF79EFB049404A9064881
:101E20000594FFF77DF8002801D0FEF794FB06B07B
:101E300010BD000000080040780400200C4810B5D8
:101E40000A4901604FF4E1314160002181600C22B8
:101E5000C160C0E904128161C161FFF77FFD002804
:101E600003D0BDE81040FEF776BB10BD0010014066
:101E7000C00400200C4810B50A4901604FF4E1315C
:101E80004160002181600C22C160C0E904128161BF
:101E9000C161FFF763FD002803D0BDE81040FEF7E5
:101EA0005ABB10BD0044004004050020FEE7FEE7D9
:101EB00070B51E4D51EC100B2DED028B95ED081BEE
:101EC00053EC112B01F04CFE0E4646EC100B95ED39
:101ED0000A1B044653EC112B51EC100B01F040FE91
:101EE00041EC100B85ED040B53EC102B95ED020B20
:101EF00051EC100B01F000FD46EC104B95ED001B72
:101F000041EC180B53EC112B51EC100B01F0F4FCCD
:101F100053EC182B01F064FA41EC100B85ED060B25
:101F2000C5E90A46BDEC028B70BD000048000020E8
:101F300070B5424C0D462DED088BB0EE40AAF0EE88
:101F400060AA06469FED3E0B9FED388B53EC102B9D
:101F500094ED0E0B9FED379B51EC100B01F0F4FA52
:101F6000C4E9100128B200FA86F001F072FC41ECDD
:101F7000110B53EC1A2B84ED141B01F0F1FD41EC15
:101F80001B0B9FED310B84ED12BB53EC102B94ED2A
:101F9000160B51EC100B01F0AFFC9FED2D0B41EC3B
:101FA0001A0B53EC102B51EC1B0B01F0A5FC53EC5E
:101FB0001A2B01F015FA41EC100B53EC182B84EDA1
:101FC000180B01F097FD02D284ED188B0AE094ED16
:101FD000180B53EC192B51EC100B01F051FC01D2F2
:101FE00084ED189B94ED129B84ED169B94ED180BD9
:101FF00053EC102B94ED100B51EC100B01F07CFC0A
:1020000094ED0E0B41EC180B53EC192B51EC100B0B
:1020100001F072FC53EC182B01F0E2F941EC100BCB
:1020200084ED0C0BBDEC088B70BD000000000000BF
:102030000088C340000000000088C3C048000020A2
:102040000000000000006940333333333333D33FA3
:10205000666666666666E63F2DED068BDFF82481D0
:102060009FED49AB9FED4A8B4B4D4C4E4FF4806931
:102070004FF4807A4FF4007B9FED499B4A4C4B4FC5
:10208000D8F8040001F056FE41EC100BFFF710FFEA
:1020900084ED0A0BD4E90010B0EE4A0AF0EE6A0AA9
:1020A000FFF746FF84ED0C0B53EC102B94ED0A0B5D
:1020B00051EC100B01F094F941EC100B53EC1A2B7E
:1020C00084ED080B01F016FD21D8002204212846DA
:1020D000FEF78EFB012249462846FEF789FB0022C7
:1020E00051463046FEF784FB012259463046FEF742
:1020F0007FFB94ED080B53EC182B51EC100B01F007
:10210000F9FC27D2B0EE480AF0EE680A20E001227E
:1021100004212846FEF76CFB002249462846FEF7BC
:1021200067FB012251463046FEF762FB002259460A
:102130003046FEF75DFB94ED080B53EC192B51EC88
:10214000100B01F09DFB05D2B0EE490AF0EE690AD2
:1021500084ED080B94ED080B00F05FFB84ED060B9B
:10216000B0EE401AF0EE601A84ED040B51EC110B46
:1021700001F042FB3968486339688863012000F048
:10218000A9FB7DE7280100200000000000000000FE
:102190000000000000006940000402400008024006
:1021A00000000000000069C008000020300400208A
:1021B00010B5502080F31188BFF34F8FBFF36F8F9E
:1021C00001F014F818B104494FF080500860002065
:1021D00080F3118810BD000004ED00E030B593B02D
:1021E00030216846FEF751F914210CA8FEF74DF98D
:1021F0001C480025016841F080510160006800F032
:10220000805011901848016841F440410160006815
:10221000022400F44040119001200090000401903D
:102220008001CDE9064008AA0420642182E8130059
:102230000B906846FEF7BCFC08B172B6FEE70CA92D
:102240000F2081E831004FF48050CDE90F050321C4
:102250000CA8FEF7A3FB002801D072B6FEE713B06E
:1022600030BD000040380240007000400248016864
:1022700041F470010160704788ED00E010B50B4833
:10228000FFF74DF80A48FFF717FC0A480068406A54
:102290000949086009480068406A09490860094915
:1022A000002048628903486210BD000078040020C5
:1022B0003F010020A003002008000020E8030020C8
:1022C0000C000020000001400148FFF728B8000082
:1022D00048050020F0B502681D4B1E4C9F031E4DA3
:1022E0001E4E984207D0B84205D0A04203D0A84263
:1022F00001D0B04204D122F0700C4A6842EA0C02CC
:10230000984210D0B8420ED0A0420CD0A8420AD0B9
:10231000B04208D0124CA04205D0124CA04202D0CC
:10232000114CA04203D122F44074CA6822434C6984
:1023300022F08002224302608A68C2620A688262D6
:10234000984201D10969016301214161F0BD00009A
:10235000000001400004004000080040000C004064
:1023600000400140004401400048014010B501F028
:102370001F030121046A99408C430462016A9A4058
:102380001143016210BD10B5846842EA032224F4AF
:102390007F440A432243826010BD826822F07002AB
:1023A0000A4342F0070181607047000030B5026ABD
:1023B00022F001020262026A4368846924F0730514
:1023C0000C682C4322F002058A682A430A4DA84271
:1023D0000BD122F00805CA6823F440732A434D69E3
:1023E00022F004021D438B692B43436084614968DA
:1023F0004163026230BD00000000014030B5026A56
:1024000022F010020262026A436884690D6824F4B3
:10241000E64444EA05248D6822F0200242EA0512CF
:102420000B4DA8420ED1CD6822F0800242EA05127F
:102430004D6923F4406343EA85038D6922F040022D
:1024400043EA85034360846149688163026230BD69
:102450000000014030B5026A22F480720262036A11
:102460004268C46923F4007324F073050C682C439C
:102470008D6843EA05230C4DA8420ED1CD6823F4A4
:10248000006343EA05234D6922F4405242EA0512F3
:102490008D6923F4806342EA05124260C461496891
:1024A000C163036230BD00000000014030B5026A24
:1024B00022F480520262046A4268C3690D6823F400
:1024C000E64343EA05238D6824F4005444EA0534C6
:1024D000064DA84204D14D6922F4804242EA851299
:1024E0004260C36149680164046230BD000001407C
:1024F00010B5036A046A24F001040462846924F0BC
:10250000F00444EA021423F00A020A4384610262DE
:1025100010BD10B5036A23F0100303628369046AD7
:1025200023F4704343EA023224F0A00343EA01118A
:102530008261016210BD10B5806B0021C185C1842C
:10254000FFF7D6F810BD01680C3151E8002F22F4D6
:10255000907241E80023002BF5D10168143151E855
:10256000002F22F0010241E80023002BF5D1016B7E
:10257000012909D101680C3151E8002F22F0100225
:1025800041E80023002BF5D1202180F83E100021E6
:102590000163704708B590F83E10222901D002204F
:1025A00008BD82684FF480539A4201D1016921B17C
:1025B000816A9A421BD04AB10AE00268816A526875
:1025C000C2F308020A80816A891C08E0026972B1BC
:1025D0000268526802F07F020A70816A491C8162B7
:1025E000C18D491E0904090CC18503D019E0026898
:1025F0005268F1E70168CA6822F02002CA600168E7
:10260000CA6822F48072CA6001684A6922F0010235
:102610004A61202180F83E10016B012903D0FFF7A9
:1026200048FA002008BD0021016301680C3151E81F
:10263000002F22F0100241E80023002BF5D10168A1
:102640000A68D20602D50A6849680091818DFFF7B1
:102650004EF8E6E770B5044600680169E26821F4C7
:102660004051114301612169A068E2690843616931
:10267000114308432168CA6849F20C639A43024334
:10268000CA6020684169A26921F440711143416127
:1026900031492068884202D03049884202D1FEF791
:1026A00047FA01E0FEF734FAE269002319216425B4
:1026B0003226B2F5004F626828D0A0FB0101930FCB
:1026C0009200FDF739FE0146B0FBF5F06FF01802FD
:1026D000504301EB800006EB0010B0FBF5F000F07A
:1026E000F002B1FBF5F002EB0012B1FBF5F06FF078
:1026F0001803584301EB800006EB0010B0FBF5F027
:1027000000F00F0021681044886070BDA0FB01013B
:1027100092185B41FDF710FE0146B0FBF5F0020197
:10272000B1FBF5F06FF01803584301EB800006EBA6
:10273000C000B0FBF5F000F0F80002EB4002B1FB86
:10274000F5F0584301EB800006EBC000B0FBF5F05C
:1027500000F00700D6E7000000100140001401401F
:1027600081628285C28500210164222280F83E2098
:1027700080F83C10016921B10168CA6842F4807296
:10278000CA6001684A6942F001024A610068C16892
:1027900041F02001C16000207047000010B50A48D8
:1027A000FEF7A8FF012209490748FFF76DF907481E
:1027B0004FF400710278064822B10022BDE81040B3
:1027C000FEF716B80122F9E7C004002040000020FF
:1027D0000004024010B50648FEF78CFF0B220549A5
:1027E0000348FFF751F9BDE810400248FFF764B90C
:1027F000040500203F010020FEE70907090E00281C
:1028000004DB00F1E02080F80014704700F00F00B6
:1028100000F1E02080F8141D70472DED020B0198A7
:1028200020F0004001909DED000B02B070470000C9
:10283000FDF7F2FFFFF7D2FCFFF7C4F9FFF720FA2C
:10284000FFF754FAFFF786FAFFF7F8FAFFF712FBE3
:10285000FFF7C0FA012251021248FDF7C9FF1248E2
:10286000FEF7E8FB1148FEF7E5FB1148FEF7E2FB37
:102870001048FEF711FC00210D48FEF7D5FE04219B
:102880000B48FEF7D1FE01220B490C48FFF7FCF87C
:102890000B220B490B48FFF7F7F8FFF77FF900F021
:1028A00020F8FEE700040240A0030020E803002017
:1028B000300400207804002040000020C0040020E4
:1028C0003F0100200405002001460020842900D09B
:1028D000C81C704710B500B9012000F023FB002090
:1028E00010BD10B500F044FB002010BD7FB50D46B3
:1028F00004464169B0F9080081B1A16971B1FFF7DF
:10290000E3FFD4E905128DE80700D4E900102B4657
:10291000226900F040FC039004B070BDFFF7D4FFC3
:1029200003A9CDE90001208A2B4682B2D4E9001028
:1029300000F004FC012801D00020EDE70398EBE74C
:102940002DE9F041184C0F460546E6682068001D49
:1029500000F020FA38B9206890F82C100120884047
:10296000216981432161681C07D137B12168BDE825
:10297000F0410E48091D00F051BA20683544B542B7
:102980004560216805D2A06BBDE8F041091D00F04B
:102990002DBA606B091D00F029FAA06A854200D2A9
:1029A000A562BDE8F0810000C00000206C06002098
:1029B0002DE9F041054600F03DFA2E4CA068401C80
:1029C000A06020682C4F10B1606940B32DE02560F5
:1029D000A068012829D1002606EB860007EB8000BD
:1029E00000F0F6F9761C072EF6D323488C3000F061
:1029F000EFF92148A03000F0EBF91F48B43000F0A7
:102A0000E7F91D48C83000F0E3F91B48DC3000F05E
:102A1000DFF919488C3060631430A06305E020684A
:102A2000E96AC06A884200D82560606A401C60621A
:102A3000E96A0120226988401043206101EB81008E
:102A400007EB8000291D00F0E9F900F013FA606936
:102A500000280CD02068E96AC06A884207D207497A
:102A60004FF080500860BFF34F8FBFF36F8FBDE80A
:102A7000F0810000C00000209005002004ED00E07F
:102A800010B5044690F8510058B101280CD0022826
:102A90000FD0502080F31188BFF34F8FBFF36F8F9B
:102AA000FEE7206B00F0FAF92046BDE8104000F088
:102AB000F5B910BD10484FF47051420706D0C01D43
:102AC0000D4920F00700411AC1F570510B4A00234F
:102AD0000144C2E900030839183A21F007011160E6
:102AE0004B600B600B1AC0E9001393604FF000407D
:102AF00053605061704700008006002014010020E0
:102B0000144E154CA6F1C8074FF08058DFF84C90D2
:102B100012E000BF00F08EF9F068C568281D00F0D3
:102B200039F9A068401EA0606068401E606000F037
:102B3000A1F92846FFF7A4FF60680028EAD13868A9
:102B40000128F9D9C9F80080BFF34F8FBFF36F8F09
:102B5000F2E7000058060020C000002004ED00E06D
:102B60002DE9F0479A46DDE9098481466FF00303B9
:102B7000206B03EB82021044089E20F007077807C1
:102B800007D0502080F31188BFF34F8FBFF36F8FB2
:102B9000FEE7002561B1002023180A5C83F8342089
:102BA0000A5C12B1401C1028F6D384F8435001E0AF
:102BB00084F83450072E00D30626E662C4E9116576
:102BC000201D00F010F904F1180000F00CF9246148
:102BD000C6F107006462A061E56484F85050524673
:102BE0004946384600F0C0F82060B8F1000F01D027
:102BF000C8F80040BDE8F08730B5114900E0114643
:102C00000A688242FBD34B685C18844203D1406857
:102C100018444860084643681C18944209D1084C7F
:102C2000183C2468A24209D052681A4442600A68DB
:102C300012680260814200D0086030BD0460F9E78C
:102C4000140100200648416B096829B1416BC9682D
:102C5000C9684968816270474FF0FF31FAE70000A8
:102C6000C000002008484068401C4FF0500080F32E
:102C7000118804D0BFF34F8FBFF36F8FFEE7BFF310
:102C80004F8FBFF36F8FFEE71C0100202DE9F0414D
:102C90000546002700F0A2F9324E306808B9FFF768
:102CA00009FF706905424ED1C5B3083568070ED0DB
:102CB00005F00700C0F108000544680707D0502060
:102CC00080F31188BFF34F8FBFF36F8FFEE72DB3F3
:102CD0007068854237D82348183001460C6801E0F7
:102CE00020460C466168A94202D221680029F7D12A
:102CF00031688C4227D00768216801606068083716
:102D0000411B10290FD96019420708D0502080F3C9
:102D10001188BFF34F8FBFF36F8FFEE713E0416061
:102D20006560FFF769FF61687068401A7060B2689B
:102D3000904200D2B060706901430020C4E90001F4
:102D4000F068401CF06000F0B7FA780707D0502018
:102D500080F31188BFF34F8FBFF36F8FFEE73846C4
:102D6000BDE8F081FC00002010B5031F4FF0807417
:102D70001C601B1F21F001011960191F044B0B601F
:102D800014390A60091F6FF0020244380A6010BD4E
:102D9000652C0008D0E9013201699A60D0E901236D
:102DA0005A604A68824201D182684A600022026108
:102DB0000868401E0860086870470000034B036005
:102DC00003F1540008608020106070474C0100201F
:102DD00000F108014FF0FF32C0E90112C16001614A
:102DE00000210160704700210161704730B50B6818
:102DF0005A1C02D000F1080202E0026904E02246F7
:102E0000546825689D42FAD953684B6099608A607E
:102E1000516008610168491C016030BD42684A6028
:102E200093688B6093685960916008610168491CE0
:102E300001607047502080F31188BFF34F8FBFF3BC
:102E40006F8F0A494868401C486001280CD1084827
:102E5000006810F0FF0F07D0502080F31188BFF3F7
:102E60004F8FBFF36F8FFEE7704700001C010020FB
:102E700004ED00E00849486828B1401E486001D1CF
:102E800080F311887047502080F31188BFF34F8F73
:102E9000BFF36F8FFEE700001C01002070B5002813
:102EA0002AD0164DA0F1080460686969084207D16C
:102EB000502080F31188BFF34F8FBFF36F8FFEE771
:102EC00022683AB1502080F31188BFF34F8FBFF3CF
:102ED0006F8FFEE78843606000F080F86068696883
:102EE000084468602046FFF787FE2869401C286177
:102EF000BDE8704000F0E0B970BD0000FC000020AB
:102F00004FF0E02000210161816105494FF47A72A0
:102F10000968B1FBF2F1491E416107210161704767
:102F2000BC00002010B5020014D00F48006B38B16F
:102F3000502080F31188BFF34F8FBFF36F8FFEE7F0
:102F400000F04CF800211046FFF7FAFC00F0B4F94D
:102F5000002807D105494FF080500860BFF34F8F1C
:102F6000BFF36F8F10BD0000C000002004ED00E033
:102F700010B586B00024039405AA04A903A80494FC
:102F8000FFF71CFFDDE903010094CDE901100023E8
:102F90000EA11048059A00F0FEF80F490028C862FB
:102FA00011D0502080F31188BFF34F8FBFF36F8F84
:102FB0004FF0FF30886201204861CC6006B0BDE868
:102FC000104000F041B806B010BD000049444C4527
:102FD00000000000012B0008C00000200248016B27
:102FE000491C016370470000C00000201448016BB9
:102FF00011B10121C16170470021C1610169B1FABC
:1030000081F1C1F11F0101EB81020E4951F822301B
:103010006BB101EB820101F108034A6852684A6012
:103020009A4201D152684A60D168016070475020CD
:1030300080F31188BFF34F8FBFF36F8FFEE700005F
:10304000C0000020900500201CB537480168374AB1
:10305000914207D1502080F31188BFF34F8FBFF307
:103060006F8FFEE700683149491E884207D1502022
:1030700080F31188BFF34F8FBFF36F8FFEE72C49AA
:1030800008780190FF20087008788DF800009DF8FE
:1030900000009DF8002000F0F000904207D0502082
:1030A00080F31188BFF34F8FBFF36F8FFEE79DF85A
:1030B0000000204C00F0500020700720A06005E0C8
:1030C0009DF8002052008DF80020401E9DF8002041
:1030D0001206F5D4A060032807D0502080F3118891
:1030E000BFF34F8FBFF36F8FFEE74FF44070A060C8
:1030F000019808700C482030016841F470010160AB
:10310000016841F070410160FFF7FAFE0020606045
:10311000FDF7B6F80848016841F040410160FDF74D
:103120009BF800201CBD000000ED00E071C20F41C3
:1031300000E400E01C01002034EF00E02DE9FF5F17
:103140008346DDE90E87994616468A469000FFF7CA
:103150009DFD05001CD05420FFF798FD040014D0FD
:103160000020256384F85100CDE90240CDE90087B5
:103170004B46324651465846FFF7F2FC2046FFF7D1
:1031800017FC012004B0BDE8F09F2846FFF786FE3B
:103190004FF0FF30F6E7F0B585B0DDE90B640A9D2E
:1031A000A6B1DCB1542700972663022684F851604B
:1031B000002604AFCDE90246CDE90057FFF7D0FC69
:1031C0002046FFF7F5FB049805B0F0BD502080F3D2
:1031D0001188BFF34F8FBFF36F8FFEE7502080F34E
:1031E0001188BFF34F8FBFF36F8FFEE72DE9F041DA
:1031F0002F4C0026206B28B1A069401CA0613046EE
:10320000BDE8F081E5686D1CE56013D1606B006876
:1032100038B1502080F31188BFF34F8FBFF36F8F09
:10322000FEE7606BA16B6163A063206A401C2062B3
:10323000FFF708FDA06ADFF87C80854209D3606B48
:103240000068A0B1606BC068C7687868854211D219
:10325000A0622068C06A00EB800158F821000128B4
:1032600000D90126E0690028C9D00126C7E74FF040
:10327000FF30EDE7381DFFF78DFDB86A18B107F193
:103280001800FFF787FDF96A012022698840104382
:10329000206101EB810108EB8100391DFFF7BEFDC4
:1032A000F86A2168C96A8842C9D30126C7E70000C5
:1032B000C0000020900500202DE9F0472C4D00248F
:1032C0002746286B38B1FFF7B5FD286B401E2863F1
:1032D000286B40B146E0502080F31188BFF34F8F38
:1032E000BFF36F8FFEE7A968224E0120D1B3A6F18C
:1032F000B40980463068E8B1F068C46804F1180089
:10330000FFF748FD201DFFF745FDE06A2A6908FA2E
:1033100000F11143296100EB800109EB8100211DBF
:10332000FFF77CFDE06A2968C96A8842E2D3C5F8E4
:103330001C80DFE70CB1FFF785FCAC6944B1464661
:10334000FFF754FF00B1EE61641EF9D10020A861BF
:10335000E86938B10849012738070860BFF34F8F83
:10336000BFF36F8FFFF786FD3846BDE8F08700009A
:10337000C00000204406002004ED00E021F00042DF
:10338000A2F16052B2F5801F01F0004328BFD2F1D4
:103390007F6C0BD95FEA001C43EAC20242EB50701B
:1033A00018BF704728BF20F001007047B2F5801F9A
:1033B000BCBF184670474FEA410C1CF5001F02D2F3
:1033C000084600F02DBD70B500F040FB00000089FC
:1033D000FFF7F6BF4FF00040A0F5800070470000F7
:1033E00010B591EA030F48BF83F0004300F1C0839A
:1033F000841A71EB030C05D2121943EB0C03001B6A
:1034000061EB0C01DFF824E14FEA1154A4EB135CEB
:103410001EEA430F18BF9EEA445F73D023EA0E03EF
:10342000DCF1200E21EA045143F4801332D322FA56
:103430000CFE10EB0E0023FA0CFE41EB0E01CCF15A
:10344000200E03FA0EFE10EB0E0051F10001B1F553
:10345000801FCCF1200E32D201EB045112FA0EF291
:10346000BDE8104058BF7047401C38BF5FEA4202B9
:1034700018BF7047002814BF20F0010041F100017F
:103480004FEA410313F5001F38BF7047A1F1C04157
:1034900000F02ABB012A43EB0302ACF1200CDCF163
:1034A0001F0E32BF4FF0000E23FA0CF310EB030097
:1034B00041EB0451B4EB115FD0D0A1EB045101F505
:1034C000801149085FEA300001EB04510ED350F13E
:1034D000000038BF12FA0EFE08D1BDE81040C9E75F
:1034E000401C38BF5FEA4202CAD1C3E7BDE81040C2
:1034F0004FEA410313F5001F38BF7047A1F1C041E7
:1035000000F0F2BA9EEA445F08D011EA5E0FBDE80F
:10351000104004BF01F0004100207047BDE810409A
:1035200070B500F093FA00BF64FBBE3E0000E0FF00
:10353000491058BFC1F140415B1058BFC3F140432F
:103540008B42EFF3008070472DE9C04130B4DFF8C3
:10355000A0C23CEA111418BF3CEA131400F0EC803E
:1035600081EA03051CEA111444EAD57418BF1CEA69
:10357000131500F0C780A4EB05044FF0004545EAA1
:10358000C12145EAC32341EA505143EA525304F1B1
:103590007F74994204F500344FEAC0204FEAC222FA
:1035A00008BF904200F09C804FEA13650FF240166E
:1035B000765D4FEA134506FB05F7C7F1807706FBFA
:1035C00007F74FEAD737A7FB03687642C8F580387C
:1035D000A7FB06CE38BFA8F1010807FB08E64FF0AD
:1035E000000EA6FB028CE6FB03CEDCF1000CCEF154
:1035F000004E38BFAEF1010EA6FB0C584FF000078D
:103600004FF00005E6FB0E87A1FB08C6A0FB07CE26
:1036100016EB0E0645F10005E1FB076515F1E04EDE
:103620007EBFA4F580345FEA46066D4116F180073F
:1036300045F100054FEA17274FEA066647EA056796
:10364000A6F1DE46B6F1805F4FEA15251FD9384650
:1036500024F0010C05EBC471BCF1FE6F01EB0C1101
:1036600002D8F0BCBDE8008124425CBF01F5801E99
:103670009EEAC47F02D4F0BCBDE80081244238D465
:10368000F0BCA1F1C041BDE8004100F02DBA4FEA05
:10369000D22242EA43524FEAD323A7FB02864FEAE3
:1036A000D02040EA415007FB03661EEA0E0F4FEAA6
:1036B000D12105FB026658BFA6EB0056B6EB0056BB
:1036C0004FEA520E4EEAC37E18EB0E0E56EB530E27
:1036D000BDD518EB02085E417F1C55F10005B6E729
:1036E0004FF480154FF000074FF000064FF0000830
:1036F000ADE7F0BC4FF0000001F1C04101F0004126
:10370000BDE8008111EA0C1F0CEA131500D00CE093
:1037100013EA0C1F00F025804FF00000F0BC81EA96
:10372000030101F00041BDE80081F0BCBDE80041AB
:1037300081EA030100F0D8B9F0BCBDE8004170B5E2
:1037400000F084F9097EFC3E00F007B881EA03012D
:103750004FF0000001F00041704781EA030100F0E2
:10376000C3B9F0BCBDE800414FF0000021497047EB
:10377000FFFDFBF9F7F5F4F2F0EEEDEBE9E8E6E436
:10378000E3E1E0DEDDDBDAD8D7D5D4D3D1D0CFCDBD
:10379000CCCBCAC8C7C6C5C4C2C1C0BFBEBDBCBBF6
:1037A000BAB9B8B7B6B5B4B3B2B1B0AFAEADACABF1
:1037B000AAA9A8A8A7A6A5A4A3A3A2A1A09F9F9ECB
:1037C0009D9C9C9B9A99999897979695959493937D
:1037D000929191908F8F8E8E8D8C8C8B8B8A898914
:1037E0008888878786858584848383828281818097
:1037F0000000FF070000F87F4FEA1153A3F5806334
:10380000D3F11E03A8BFD3F1200C08DB4FF0004218
:1038100042EAC12252EA505232FA03F0704709429A
:103820000BD4102BC4BF0020704703F5787CBCF18B
:10383000FF3F05D04FF0FF3070474FF0000070475A
:1038400070B500F003F900BF499224800020704752
:10385000F0E710F0004248BF4042B0FA80F310FA9F
:1038600003F10AD0C3F11D0303F580634FEA415011
:1038700002EB035202EBD12170474FF0000070477A
:1038800051EA030C17D41CF5801F58BFBCF5801FEC
:1038900000F10680994218BF704708BF90427047F8
:1038A00007D711F5801F58BF13F5801F19D499420F
:1038B0007047894270471CF5801F08D5BCF5801FF2
:1038C000F7D58B4218BF704708BF824270474FF44C
:1038D000001C1CEB410F38BF1CEB430F01D28B4285
:1038E000704770B500F0B2F8922449004FF00051D3
:1038F0004FF08053FFF71CBEDFF848C170B51CEADB
:10390000111E1EBF1CEA13159EEA0C0F95EA0C0F40
:1039100000F06F8081EA030423EA4C134EEAD47E60
:1039200021EA4C1141F4801143F48013AE44A1FB11
:10393000024CA0FB0365AEF17F7E361955EB0C05FA
:10394000A1FB034C4CF10003A0FB021C16EB0C0680
:10395000654153F10003094218BF46F0010613F414
:10396000007F0BD14FEA03314FEA0530340341EABF
:10397000155140EA16506FF003020AE04FEAC321E6
:103980004FEAC520F40241EA555140EA56506FF023
:10399000020202EB2E4201EB025585EACE710AD0FB
:1039A0005FEA440C18BF24F0004450F1000041F1DC
:1039B000000120EAD47040F2FE7C624500D270BD66
:1039C000A84214BF4FF080444FF04044002E08BF7F
:1039D0000024BEF1806FA8BFA1F1C041BDE87040D6
:1039E00080F282804FF0000001F1C04101F00041FF
:1039F00070479EEA0C0F0CEA131518BF95EA0C0FDE
:103A000006D04FF0000081EA030E0EF0004170BDB9
:103A100000F01CF88900013E00F007B800F009B87A
:103A20004FEA430C5FEA5C5C08D081EA030100F0D6
:103A30005BB84FEA410C5FEA5C5CF6D14FF00000E6
:103A4000014970470000FF070000F87F0EF1020EE9
:103A50002EF0030E5EF8046B364205D4012A43EBC8
:103A6000030515F5001F12D8012841EB010C1CF5C8
:103A7000001F0CD80ED14FEAD17C15F5001F0CEBBE
:103A80004C0C0CF1020C08BF4CEBD37C04E04FF063
:103A9000080C01E04FEAD37C0CEB4C0526FA05F646
:103AA00006F00706B6F1040C06D20EEB860CBDE854
:103AB00070404CF0010C6047DFE80CF0090B02028B
:103AC0004FF000414FF00000A1F5002170BD1946F4
:103AD0001046012851EB010418BFD4F5001484BF2F
:103AE000002001F0004170BD0808A0F500114FEA68
:103AF0003101704753EA010C17D41CF5801F58BFE1
:103B0000BCF5801F00F106808B4218BF704708BFCC
:103B10008242704707D713F5801F58BF11F5801FE9
:103B200019D48B4270479B4270471CF5801F08D503
:103B3000BCF5801FF7D5994218BF704708BF904267
:103B400070474FF4001C1CEB430F38BF1CEB410FB8
:103B500001D2994270470FB40CBC03BCFFF7C1BE41
:103B600010B591EA030F48BF83F000433FF540AC26
:103B7000841A71EB030C07D212198CF0004C43EB42
:103B80000C03001B61EB0C01DFF8A4E14FEA1154B8
:103B9000A4EB135C1EEA430F18BF9EEA445F00F0DB
:103BA000B08023EA6E03524221EA0451C3EB6E0354
:103BB00038BF5B1EDCF1200E25D322FA0CFE10EB81
:103BC0000E0043FA0CFE41EB0E01CCF1200E03FA7D
:103BD0000EFE10EB0E0051F10001CCF1200E29D4A5
:103BE00012FA0EF201EB0451BDE8104058BF7047C5
:103BF000401C1CBFB2F1004F704700280CBF491C8D
:103C000020F00100704712EB020E43EB030218BFD5
:103C10004FF0010E4EEA4202ACF1200CDCF11E0E18
:103C200054D943FA0CFE10EB0E0051F1FF31CCF1E8
:103C30001E0ED5D50EF1010E12FA0EFE404141EBDB
:103C4000010101EB445C5FEA5C5C10D910EBDE70B3
:103C500001EB045138BFBEF1004FBDE8104018BF62
:103C6000704700280CBF491C20F00100704730D27B
:103C70004FEAD42C11F5001124F400641BD0B1FAE2
:103C800081F20B3AA41AA41ED2F12003914030FA1B
:103C900003F31943904001EBCC71002C01EB04516C
:103CA000BDE81040A8BF704701F1C0414FF00000CF
:103CB00001F000417047B0FA80F310FA03F100D12F
:103CC00010BDE41A173C4805C90AE4E701EB0451AA
:103CD00010BD491001EB0451BDE810404FEA30001F
:103CE00002E04FF0000170474A0008BF0042F8D0E0
:103CF000B2F5001F28BF704701F000414FF00000EF
:103D000070479EEA445F07D011EA5E0FBDE810409D
:103D100004BF002100207047BDE8104070B5FFF7D8
:103D200095FE00BF40DFF63E83F00041104670472D
:103D30000000E0FF43004FEAD30C4FEA3C0C434045
:103D40001FBF40070CF1605113F0FE4F70471CF08D
:103D5000006F03D100200CF0004170470CF00043CD
:103D600043EA507010B540EACC0000F00EF800BFF6
:103D7000000000924FEA0001FFF7B6BE4FF000418D
:103D80004FF00000A1F5002170470EF1020E2EF059
:103D9000030E5EF8044B244204D44FEA4102B2F110
:103DA0007F4F11D84FEA4003B3F17F4F0CD80ED1AB
:103DB0004FEAD07CB2F17F4F0CEB4C0C0CF1020CB3
:103DC00008BF4CEBD17C04E04FF0080C01E04FEA57
:103DD000D17C0CEB4C0324FA03F404F00704B4F197
:103DE000040C06D20EEB840CBDE810404CF0010C24
:103DF0006047DFE80CF0070802024FF00040A0F532
:103E0000800010BD0846420018BFD2F1807288BF02
:103E100000F0004010BD4FF04070E1EE100A704716
:103E2000FF2141EAD050C00570470000603E000805
:103E3000592000080300000000000000800000007E
:103E40000000000000000000000000000000000072
:103E50000102030406070809000000000102030430
:103E600064656661756C745461736B008C3E000808
:103E70000000002028010000D4010008B43F000821
:103E800028010020B8470000F001000800000000F1
:103E90000000000000000000000000000000000022
:103EA0000000000000000000000000000000000012
:103EB0000000000000000000000000000000000002
:103EC00000000000000000000000000000000000F2
:103ED0000000000000000000000022400AD7A3708C
:103EE0003D0AA73F000000000000000000000000A5
:103EF000000000000000000000000CC000000000F6
:103F00000000F03F000000000000000033333333B6
:103F10003333FB3F00000000000000000000000001
:103F20000000000000000000000000000000000091
:103F30000000000000000000000000000100000080
:103F400010000000000000000024F4000000000049
:103F50000000000000000000000000000000000061
:103F60000000000000000000000000000000000051
:103F70000000000000000000000000000000000041
:103F80000000000000000000000000000000000031
:103F90000000000000000000000000000000000021
:103FA000000000000000000000000000AAAAAAAA69
:043FB000000000000D
:040000050800019955
:00000001FF
